:100000000C94960A0C94DD0A0C94DD0A0C94DD0A1B
:100010000C94DD0A0C94DD0A0C94DD0A0C94DD0AC4
:100020000C94DD0A0C94DD0A0C9412300C94E1302F
:100030000C949A290C94DD0A0C94DD0A0C94DD0AC8
:100040000C94DD0A0C94DD0A0C94DD0A0C94DD0A94
:100050000C94DD0A0C94F3290C94DD0A0C94DD0A4F
:100060000C94DD0A0C94DD0A0C94DD0A0C94DD0A74
:100070000C94DD0A0C94DD0A0C94DD0A0C94DD0A64
:100080000C94DD0A0C94DD0A0C94DD0A0C94DD0A54
:100090000C94DD0A0C94DD0A0C94DD0A0C94DD0A44
:1000A0000C94DD0A0C94DD0A0C94DD0A73187618A2
:1000B00088189918A118AC18031903190319F11815
:1000C000F418AF18B218B618C318D018D318D71828
:1000D000E4181D201D204F204F209C20C321C32148
:1000E000C321BA205321642164215F225F2271223F
:1000F000712268227122712271225F225F226D2299
:10010000712271226D224E3175316D3275316D3231
:10011000C131E4316D323B324A320A00627572738A
:1001200074206F6E00256325632563256325632591
:1001300063256325637C0001048E966E773EFE7E08
:100140005F1DB8F2664EFF5D19B0C20469542AD62D
:100150002EBFDD19B0C3E529B1E023A5A9B1C100C7
:1001600082674C1A978D795120C7068E7C7C7A76EF
:100170004FFD5930E2460E9EBEDF1D9991A0A5A10C
:10018000A9D022C6EF5C1B958990A2A7CCFB55286D
:10019000B3E44AF76C3BF46A562EDE1F9DB8D305D4
:1001A0008892A6CE1EBEDF1D99B0E246EF5C071115
:1001B0005D980B9D9497EE4E45336B44C7295627A7
:1001C00030C6A7D5F256DFB43862CBA0B6E30F84B1
:1001D000062405656F7689B577412782666582CCEE
:1001E000D5E620D52717C5F803237C5F64A51DC17C
:1001F000D636CB4CD4DB66D78BB1997E6F4C36406C
:1002000006D6EBD7A2E4F495515A5496D55344D769
:100210008CE0B94068D218E9DD9A239248EE7F431A
:10022000AFEA7738848C0A72AF69F8DDF12483A3D2
:10023000F84ABFF59413DBBBD8B4B3A0FB455060BC
:100240003059123171A2D313E7FAE7CE0F63150BC1
:100250006B94BB378326059DFB4692FC0A15D10D96
:100260007392D68C1B8CB8558ACEBDFE8EFCED09E0
:1002700012839182513123FBB40C76AD7CD9B44BFF
:10028000B26714099C7F0C18BA3BD68E142AE41B63
:10029000529F2B7DE1FB6A3302FAAC5AF23E887E14
:1002A000AED1F378E805D1E3DC21F6E19ABD170E73
:1002B000D9469B8803EAF666BE0E1B5049964097C6
:1002C000F1F1E480A66EE87734BF294044C2FF4EC6
:1002D00098D39CA3322B76510409E7A9D1A632B159
:1002E0002353E247ABD6F5695C3E5FFAAE4520E5A5
:1002F000D244FF39326DFD27575CFDF0DEC1B59960
:10030000E5F51C770175C56D5892F2B247000126DC
:10031000967A30FFB7F0EF77C18A5DDCC0D1293023
:100320001E77387A94F1B87A7EEFA4D1AC314AF2D4
:100330005D643DB2E2F00899FC70EE24A77EEE1EEB
:1003400020697D44BF8742DF883B0CDA42C904F94B
:100350004550FC838F116A72BC9995F0AC3DA73B68
:10036000CD1CE2887937115F3989950A16847AF6AF
:100370008AA428E4ED83803BB123A50310F466EA48
:10038000BB0C0FC5EC6C69C5D324ABD42AB79988D4
:100390007608A0A8957CD8386DCD5902514BF1B59F
:1003A0002B50E3B6BDD072CF9EFD6EBB44C8248AED
:1003B00077188A1306EF977DFA81F031E6FA77ED28
:1003C0003106315B548A9F3068DBE240F84E73FAA5
:1003D000AB748B105813DCD2E678D1322E8A9F2C66
:1003E00058064827C5A95E8147894621910370A414
:1003F0003E889CDA330ACEBC8B8ECF9FD37180436C
:10040000CF6BA95183763082C56A853911501A8223
:10041000DC1E1CD57DA9719933471997B35AB1DFFA
:10042000EDA4F2E62684A2289A9EDFA66AF4D6FC02
:100430002E5B9D1A2A2768FBC183214B90E036DD95
:100440005B314255A013F7D089537199570929C5DB
:10045000F321F8372F40F3D4AF16083602FC77C5E6
:100460008B049056B9C9679A99E800D386FF972DF7
:1004700008E9B7B391BCDF45C6ED0F8C4C1EE65BB7
:100480006E3830E4AAE395DEB9E49AF5B2559A875E
:100490009BF66AB2F2779A31F47A31D11D04C07CAE
:1004A00032A29E9AF562F8278DBF51FFD3DF6437E1
:1004B0003F2A6F763A7D77069E777F5EEB3251F961
:1004C00016669A09F3B008A470964630FFDA4FE931
:1004D0001BED8DF8741F3192B3731736DB9130D654
:1004E00088556B3477877AE7EE06C61C8C190C4862
:1004F00046235E9C075CBFB47ED64F749CE2C55019
:100500008BC58B159060625729D01343A1808891C9
:100510000044C74D1986CC2F2A755AFCEB972A70D8
:10052000E378D891B04F9907A395EA2421D5DE51FD
:100530002093270A3073A8FF8A97E9A76A8E0DE8EF
:10054000F0DFECEAB46C1D392A622D3D5A8B65F858
:1005500090052E7E912C78EF8E7AC12FAC78EEAF7D
:100560002845064C26AF3BA2DBA39306B53CA5D895
:10057000EE8FAF25CC3F856848A962CC978F7F2A44
:10058000EAE0150AAD6207BD45F841D836CB4CDB31
:100590006EE63AE7DA15E9291E1210A0142C0E3D7A
:1005A000F4BF394192750B257BA3CE399C1564C8E5
:1005B000FA3DEF7327FE262ECEDA6EFD718EDDFE3C
:1005C00076EEDC125C02C53A4E4E4FBFCA4015C7EC
:1005D0006E8D41F110E04F7E977F1CAE478E6BB160
:1005E0002531B073C71B9779F980D3662230077421
:1005F0001EE4D08021D6EE6B6C4FBFF5B7D90987CA
:100600002FA914BE27D9725001D41373A6A7510283
:100610007525E1B345347DA88EEBF31649CB4F8C9D
:10062000A1B9368539755D0800AEEBF6EAD7133A05
:10063000215A5F3084522695C914F257556BB11078
:10064000C2E1BD3B51C0B7554C711226C70DF951DF
:10065000A43802057FB8F1724BBF718914F3773863
:10066000D97124F30011A1D8D46927083735C911ED
:100670009D901C0EE71CFF2D1EE892E11810957C42
:10068000E080F4964321F975216438DD9F1E9516AC
:10069000DA561D4F9A53B2E2E418CB6B1A65EB564B
:1006A000C63BE5FED8263F3A84597266A2F375FF31
:1006B000FB60B322AD3F2D6BF9EBEA057CD88F6D63
:1006C0002C989E2B93F15E46F08749297368D77F5B
:1006D000F9F0E57DDB1D7519F3C4589B1788A892C6
:1006E000E0BEBD8B1D8D9F5676ADAF29E2D9D552A8
:1006F000F6B55635573AC8E156431994D3049B6D65
:1007000035D80B5F4D198EECFA64910A72202BBC20
:100710001A4AFE8BFDBBED1B23EAAD7282A129991B
:1007200071BDF095C103DD7BC2B23C2854D368A4EF
:1007300072C86696E0D1D87FF8D1262BF7ADBA55AE
:10074000CA15B932C3E588978E5CFB92258BBFA290
:1007500045557AA76F8B575BCF0ECB1DFB20827759
:10076000A88CCC16CE1DFADECC0B62FECCE1B7F025
:10077000C381647340A0C24D8911753355338DE830
:100780004AFDEA6E300BD7312CDE47E3BFF8554205
:10079000E27F59E517EF99346991B1238E20872DB7
:1007A000A8FED58AF3843AF037E4090054EE67498D
:1007B00093E48170E3904DEFFE41B7997BC183BA1A
:1007C00062126F7DDE6BAFDA16F95551EEA60C2B77
:1007D00002A3FD8DFB3017E46FDF3671C4CA872595
:1007E00048B047ECEAB4BFA54D9B9F0293C4E3E435
:1007F000E8422D6881150AEB845BD6A874FB7D1D49
:10080000CB2CDA462A7662CEBC5C9E8BE7CFBE78D4
:10081000F57CEBB33A9CAA6FCC72D159F21123D676
:100820003F48D1B7CEB0BFCBEA80DE57D45E972F1A
:1008300075D1508E802C6679BF724BBD8A816CD386
:10084000E101DCD21526C536DA2C1AC02794EDB7A3
:100850009B850B5E8097C5EC4FEC885D5007354754
:10086000DC0B3B3DDD60AFA85D813824255D5C1568
:10087000D1DEB3ABEC0569EF83ED5754B864641176
:10088000163269DA9F2D7F36BB445A34E87FBF03A6
:10089000EB007F59682279CF736C2C29A7A15F38B0
:1008A000A11DF02053E01A6314587110AA080C3EE1
:1008B000161A6022827FBAA443A0D0AC1BD56B6409
:1008C000B51493319E5350D05766EE5A4FFB032A0E
:1008D000695876F183F74EBA8C4206605D6DCE6042
:1008E00088AEA4C3F103A54B98A1FF67E1ACA2B801
:1008F00062D76FA031B4D277AF211006C69AFF1D20
:1009000009170E5FF1AA54344B458A8763A6DCF9B8
:10091000243067C6B2D6613369EE50615728E77E4E
:10092000EEEC3A5A734EA88DE418EAEC4164C8E242
:10093000E866B62DB6FB6A6C16B3DD4643B97300A4
:100940006A71ED4E9D251AC33C4A9515993581145F
:1009500002D6989BECD8233B8429AF0C9983A69AA6
:10096000344FFAE8D03C4BD0FBB668B89E8FCDF739
:10097000602D7A22E57DAB651B95A7A87FB67747EA
:100980007B5F8B1272D0D491EFDE19503CA78BC4E1
:10099000A9B323CB76E681F0C1048FA3B8545B974B
:1009A000AC19FF3F55272FE01D429B57FC4B4E0FC4
:1009B000CE98A9435703BDE7C894DF6E367332B4AF
:1009C000EF2E857A6EFC6C188275359007F3E49FE4
:1009D0003EDC68F3B5F31980920699A2E86FFF2E0A
:1009E0007FAE42A45FFBD40E812BC304FF2BB374F4
:1009F0004E365B9C1500C6472BE88B3DF19C039A55
:100A0000587F9B9CBF854979352E567B41143947C9
:100A10008326AA078998111B86E7737AD87D7861A7
:100A200053E979F5368D449284F91350583BA46A02
:100A30003665498E3C0EF16FD284C47E8E3F39AE4E
:100A40007C84F163378E3CCC3E448145F14BB9ED5B
:100A50006B365DBB20601A0FA3AA55773AA9AE3753
:100A60004DBAB8866BBC0850F6CCA4BD1D4072A52B
:100A700086FAE210AE3D584B97F34374A99EEB21E2
:100A8000B701A4869397EE2F4F3B86A1416F412675
:100A900090785C7F30384B3FAAECED5C6F0EAD4335
:100AA00087FD9335E601EF412690999EFB195BADDA
:100AB000D2918AE046AF65FA4F84C1A12DCF458B14
:100AC000D38550557CF96788D44EE9D76B6154A122
:100AD000A4A6A2C2BF309C409F5FD7692B24825E30
:100AE000D9D6A712541AF7559F7650A99584E66B6C
:100AF0006DB59654D6CDB3A19B46A7944DC494B47E
:100B000098E3E1E234D533160754CDB77753DB4F82
:100B10004D469DE9D49C8A36B6B838266C0EFF9CAB
:100B20001B438B80CCB93DDAC7F18AF26DB8D7741C
:100B30002F7E1EB7D34AB4ACFC79486CBC96B694F1
:100B400046572DB0A3FC1EB95260852D41D04301FC
:100B50001E1CD57DFCF3960DC7CB2A299A93DD8800
:100B60002D375DAAFB4968A09C50867F685657F9CF
:100B7000791839D4E001843361CAA5D2D6E4C98A90
:100B80004A23444EBCF0DC24A1A0C4E2073C10C4BC
:100B9000B5254B6563F480E7CF61B1718221872C65
:100BA000F59100320CECA9B59A7485E3368F764F37
:100BB0009C6DCEBCAD0A4BED7604CBC3B9339E0120
:100BC0009396697DC5A245799B045C8409ED8843B1
:100BD000C7AB931426A140B5CE4EBF2A42853E2C0A
:100BE0003B54E8121F0E9759B22789FAF2DF8E683C
:100BF00059DC06BCB6850D0622ECB1CBE504E63D1A
:100C0000B3B04173083F3C588663EB50EE1D2C3760
:100C100074A9D318A3476E9354AD0A5DB82A555DE5
:100C200078F6EEBE8E3C7669B940C234EC2AB9ED56
:100C30007E20E48D0038C7E68F44A886CEEB2AE9F3
:100C400090F14CDF32FB731B6D921E95FEB4DB6599
:100C5000DF4D23548948BF4A2E70D6D762B433295A
:100C6000B13A334C236DA676A5216348E6905DED3D
:100C700090950B7A84BEB80D5E630C62264C145AB4
:100C8000B3AC23A474A76F333005600142A028B72A
:100C9000EE1938F164808243E141271F1F90547A96
:100CA000D5232ED13DCB28BA587FDC7C9124E9286E
:100CB00051836EC5562142EDA05622A140806BA8FB
:100CC000F794CA136B0C39D9FDE9F36FA69EFC703B
:100CD0008AB3BC593C1E1D6CF97CAFF9887195EB49
:100CE0005700BD9F8C4FE12483C522EAFDD30CE25F
:100CF00017187C6A4CDE77B4539B4C81CD2360AAD5
:100D00000E25739C02793230DF74DF7519F4A51457
:100D10005CF77AA8A591847C6003063BCD50B6278A
:100D20009CFEB1DDCCD3B05924B2CAE21C81229D15
:100D3000078F8EB9BE4EFAFC3965BABF9D12375E79
:100D4000977EF389F55DF5E3098C62B5209D0C5320
:100D50008A681BD28F75175DD4E5DA756219146A3B
:100D6000262DEBF8AF37F06CA455B1BCE233C09A36
:100D7000CAB011494F689B3B6B3CCC13F6C78561E9
:100D80006842AEBBDDCD4516291DEADBC803943CA5
:100D9000EE4F8211C3EC28BD970599DED7BB5E22CA
:100DA0001FD4EB64D992D985B76A056AE42441F16E
:100DB000CDF0D83FF89E0ECD0B7A706B5A750A6A4B
:100DC0003388EC17750870102F24CFC4E9420061F6
:100DD00094CA1F3A7606FAD24881F077600345D963
:100DE00061F4A46F3DD930C3046B542AB7EC3BF4D3
:100DF0004BF5685226CEFF5D1991A0A3A5A9B1E0DD
:100E000023C40A774DF95120A3A5A9B1C100828658
:100E10008E7F5D1991A0A3C4EB540B756852078CAB
:100E20009A978D79706246EF5C1B95897141E1213B
:100E3000A1A1A1C002674C1AB6CFFD785324ABB56F
:100E4000C9F16023A5C812876D5813858892876DF4
:100E50005832C70C9A97ACDA36EE5E3EDF1DB8F218
:100E6000662FBDF87247ED5813858892878C7B55A5
:100E70000990A2C6EF3DF85324ABD42AB7EC5A36FA
:100E8000EE5E3EDF3CFA764FFD5930E246EF3DF82C
:100E900053056931C10082868E7F5D19B0E227CC8F
:100EA000FB744B148B948B756833C50892878C9AAE
:100EB000B6CF1CBAD70D98B2E62FDC1B95897160AE
:100EC00023C40A968F9CBAF66E3FFC5B15A8D22607
:100ED000AFBDF872662FDC1BB4CB148B94AAB7CDD0
:100EE000F951018082866F3DD930E227CCFB744BEB
:100EF00014AAB7CDF97043046B35C9F16023A5C8B6
:100F0000F3450892876D5832E62FBDF872664E1E83
:100F1000BEFE7E7E7E5F1D9991A0A3C40A774D1808
:100F200093A4ABD40B754910A2C6EF3DF85324AB84
:100F3000B5E833E44A16AEDE1FBCDB15A8B3C5081E
:100F40007345E931C1E121A1A1A1C002866F5C3ADC
:100F5000D70D9893A4CA16AEDE1F9D99B0E246EF56
:100F60003DF872470C9AB6CFFD5911A0A3A5C8F35E
:100F7000450892876D39F043048A96AEDE3EDF1D48
:100F80009991A0C2066F3DF872470C9A978D98937D
:100F900085887345E931E023A5A9D003848A96AEFC
:100FA000DE1FBCDB15A8D226CEFF5D1991818082A1
:100FB000672DD813A4ABD40B94AAB7CDF95120A3B5
:100FC000A5C8F345E95022C6EF5C3AD70D98938542
:100FD0008873644AF74DF95120A3C40A96AEDE3EE9
:100FE000FE7E7E7E5F3CFA764FFD7872662FBDD91D
:100FF00030C3E54812878C7B5528D2078C9A97AC72
:10100000DA178D795120A3C4EB540B948B94AAD694
:101010002EBFFC5B15A8D226AFDC1BB4EA37EC3B35
:10102000F46A37CD1893856931C1E140E325C812D0
:10103000878C9AB6CFFD5911A0C2068E7F5D38F21B
:10104000470C7B746A37EC5A36EE3FFC7A764F1CBD
:101050009B95897141006344EB542AD60F9CBAD703
:101060000D9893856931C10082868E9EBEDF3CFA61
:10107000572CDA36EE3FFC5B158971410082868E73
:101080007F5D38F247ED5813A4CAF74DF95101803E
:101090006344EB542AD62EBFDD1991A0A3A5A9B1B4
:1010A000E042068E7F5D1991A0A3C40A968F7D78D9
:1010B00072470C7B746A562EDE1FBCFA570D7951AD
:1010C000016121A1C0E325A9B1C1E14002674C1A29
:1010D000978D9893A4ABD42AD60F9C9BB4CB14AA1B
:1010E000B7CDF95120A3C4EB35C9F16042068E7F1C
:1010F0007C7A766E3FFC7A766E5E3EFE7E5F3CDBEF
:1011000015897141E121C0E344EB542AB7CDF97050
:101110006227ADD832C70C7B744B14AAB7EC3BD511
:1011200028D2076D39D120C2E74C1A978D98B2C7E3
:101130000C5928F39B4B4C3A206B633A2025752CB5
:1011400020636F6C3A2025752C20726F773A20252A
:10115000752C20707265737365643A2025750A00DA
:10116000436F6E735D20583A2025642C20593A2035
:1011700025640A00507265205D20583A2025642CB1
:1011800020593A2025640A0044656C745D20643A55
:1011900020256420743A2025750A00537461727406
:1011A000696E67206D6F74696F6E2E0A004F505420
:1011B000313A2025642C204F5054323A2025640ABD
:1011C00000F400F600F500F700F80001000100014E
:1011D0000001000100010001000100010001000107
:1011E00000010001000100010001000100010001F7
:1011F00000010001000100010001000100010001E7
:1012000000010001000100010001000100010001D6
:101210000044454255473A2064697361626C6564D5
:101220002E0A0044454255473A20656E61626C655E
:10123000642E0A0000000000000000002A2B280095
:101240000000000000000000000000000000002975
:10125000000000002C1E3420212224342627252EB5
:10126000362D3738271E1F202122232425263333ED
:10127000362E37381F0405060708090A0B0C0D0E19
:101280000F101112131415161718191A1B1C1D2FE5
:101290003130232D350405060708090A0B0C0D0E05
:1012A0000F101112131415161718191A1B1C1D2FC5
:1012B0003130354C0000000000000000000000004C
:1012C00000000000000000007E0F00D4FFFFFFC7F9
:1012D000000000780A0025303862003A20002530EE
:1012E0003258000A722F63203031323334353637AA
:1012F0000A000A002530325820006B6579626F6160
:1013000072645F7265706F72743A20000A00253053
:101310003258006B6579626F6172645F7365745FE8
:101320006C65643A20005B735D004B6579626F61A8
:1013300072642073746172742E0A005B575D005BE7
:10134000535D005B525D005B445D005B435D0004E8
:101350000330000000140354007200610063006B4E
:1013600000620061006C006C000000120350006C11
:10137000006F006F007000790043006F00000004F0
:1013800003090409029400050100A03209040000C9
:10139000010301010009211101000122400007059C
:1013A0008103080001090401000203000000092173
:1013B0001101000122220007058303200001070517
:1013C00004032000010904020001030102000921B5
:1013D00011010001224D00070582030800010904E4
:1013E0000300010300000009211101000122320065
:1013F0000705850320000109040400020300000022
:1014000009211101000122220007058603200001A5
:101410000705060320000112011001000000084327
:101420005042540100010203010631FF0974A10179
:101430000975150026FF00952075088102097615AB
:101440000026FF00952075089102C00660FF096123
:10145000A1010962150026FF009520750881020987
:1014600063150026FF00952075089102C00501094B
:1014700080A101850319012AB700150126B700953F
:101480000175108100C0050C0901A1018504190135
:101490002AA002150126A002950175108100C00541
:1014A000010902A1010901A1000509190129051578
:1014B00000250195057501810295017503810105DE
:1014C00001093009311581257F95027508810609CA
:1014D000381581257F950175088106050C0A3802AB
:1014E0001581257F950175088106C0C00501090693
:1014F000A101050719E029E71500250195087501E7
:1015000081029501750881010507190029FF150061
:1015100026FF009506750881000508190129059523
:101520000575019102950175039101C011241FBE3B
:10153000CFEFDAE0DEBFCDBF04B603FE27C0809157
:10154000530390915403A0915503B09156038730F3
:10155000904BA740B04BD1F4109253031092540318
:10156000109255031092560314BE84B7877F84BF30
:101570000FB6F894A8958091600088618093600010
:10158000109260000FBEE0E0F8E3099511E0A0E0E2
:10159000B1E0E6E5F6E602C005900D92A03AB1078B
:1015A000D9F723E0A0EAB1E001C01D92A335B2074C
:1015B000E1F70E94CE2C0C9429330C940000FF9389
:1015C000EF93E091A001F091A101309709F0099506
:1015D000EF91FF910895FC018591803011F0EFDFCC
:1015E000FBCF0895FF27E0E230E247FF0CC04195B2
:1015F00097FF09C0EDE26095709580959095611D0B
:10160000711D811D911D27FF02C0219530E350E21D
:10161000AA27660F771F881F991FAA1FA41710F00B
:10162000A41B63955A95A9F7AA3008F0A95FA05D9D
:10163000AF93F395611571058105910541F7ED3281
:1016400011F4EF93F395F21718F43F93F395FBCF52
:101650008F91B5DFFA95E1F70895E991F9918591B8
:10166000803021F0853219F0AADFF9CF089520E00B
:10167000E89455915532C1F3503311F46894559163
:101680005A3348F4505390F3220F022E220F220FA8
:10169000200D250FF4CF0EF42195899199915336A1
:1016A00019F3533729F1533559F1BC01882799278C
:1016B000E8945C3621F48991999168945591543657
:1016C00039F446EF7EF077FF0DC08FEF9FEF0AC031
:1016D00055374AE039F0583540E121F0523642E0C2
:1016E00009F00895FF93EF937DDFEF91FF91B7CF5E
:1016F000FF93EF93FC0181918030B9F360DFFBCF62
:10170000FF93EF9368DFF1CFDF93CF93CDB7DEB7D1
:101710002596A3DFCF91DF9108959091140290FF59
:1017200045C080FD02C070E301C071E381FD02C0CD
:1017300060E301C061E382FD02C050E301C051E3F8
:1017400083FD02C040E301C041E384FD02C030E3F9
:1017500001C031E385FD02C020E301C021E386FD25
:1017600002C090E301C091E3881F8827881F805D35
:101770001F927F931F926F931F925F931F924F93BD
:101780001F923F931F922F931F929F931F928F93AD
:1017900085E291E09F938F930E94840B8DB79EB753
:1017A00042960FB6F8949EBF0FBE8DBF089522E0FB
:1017B00030E043E060E080E30E94F11C92E09A9503
:1017C000F1F700C0089582E08A95F1F700C00C940B
:1017D0009A1DCF93DF93C82FD62F803511F010922A
:1017E000A2010E94D70B8C2F80680E946A1D8D2F4A
:1017F0000E946A1DEC0185E38A95F1F7000087ECF1
:1018000090E00197F1F700C000000E949A1DCE0100
:10181000DF91CF910895CF93C82F0E94D70B8C2FC3
:101820008F770E946A1D0E94821DC82F82E08A95D0
:10183000F1F700C082E38A95F1F700C00E949A1D7B
:101840008C2FCF910895CF93DF93EC010E94D70B9B
:10185000CE0164E670E00E94AC32615071096837D5
:10186000710510F067E770E08FE00E94E90BDF91EF
:10187000CF910C949A1DCF93DF9360E080E10E949A
:10188000E90B64E181E10E94E90B6DE183E10E94D3
:10189000E90B8FE19EE40197F1F700C0000068E1D9
:1018A00083E10E94E90B0E94D70B82EE0E946A1D21
:1018B00098E29A95F1F7C7E3D1E081E1C533D80703
:1018C00049F0FE0184910E946A1DF8E2FA95F1F751
:1018D0002196F3CFEFE8F1E03197F1F700C0000077
:1018E0008AE20E940B0C60E080E10E94E90B0E94FA
:1018F0009A1D8FE19EE40197F1F700C00000DF918F
:10190000CF910895CF93DF9380E00E940B0CD82FE6
:101910008FE30E940B0CC82F8AE20E940B0CD2347A
:1019200041F4CD3B31F491E0843009F090E0892F0F
:1019300001C080E08170DF91CF9108950E94E91C81
:101940001092A2010E949A1D0E94D70B0E949A1D1C
:1019500066EB8BE30E94E90B2FEF82E597E02150C5
:1019600080409040E1F700C000000E94D70B2AE6BB
:101970002A95F1F700C00E94E30B8AE68A95F1F7F9
:1019800000C06AE58AE30E94E90B9FE728E381E053
:10199000915020408040E1F700C0000082E00E94AA
:1019A0000B0C83E00E940B0C84E00E940B0C85E082
:1019B0000E940B0C86E00E940B0C0E943B0C0E94C4
:1019C000E30B8FE19EE40197F1F700C0000080E493
:1019D00096E00E94230C8FEC97E00197F1F700C08E
:1019E00000000C94820C7F928F929F92AF92BF92D4
:1019F000CF92DF92EF92FF920F931F93CF93DF93DB
:101A0000EC018091A201811113C08091140280FF2A
:101A100008C08CE191E09F938F930E94840B0F90FC
:101A20000F9060E080E50E94E90B81E08093A201C5
:101A30000E94D70B80E50E946A1D8DE58A95F1F71B
:101A400000000E94821DF82E80E00E946A1D0E9404
:101A5000821D6C010E94821D982E0E94821D5C01D5
:101A60000E94821DE82E0E949A1D8F2D0E948D0BD0
:101A70008C2D0E948D0B892D0E948D0B8A2D0E942A
:101A80008D0B8E2D0E948D0B8091140280FF08C05B
:101A90008AE191E09F938F930E94840B0F900F90A7
:101AA0007F2C771C7724771C88248394F3FC812C6B
:101AB000892D092C000C990B982F8827C82AD92A20
:101AC000D194C194D1080E2D0E2C000C110B102FA7
:101AD00000270A291B290E949A1D8F2D877011F05B
:101AE0001092A201F88279828A82DC82CB829D8266
:101AF0001F830E83E886CE01DF91CF911F910F9156
:101B0000FF90EF90DF90CF90BF90AF909F908F901D
:101B10007F9008951092EB02109263021092A70238
:101B20008FEF93E09093A9028093A8021092EE02A7
:101B30001092ED021092AA02109232031092390311
:101B400010923803109236031092350310926402FB
:101B50001092A602909334038093330310922402D0
:101B6000109223021092EF02109265021092F3027B
:101B70001092F2021092AC021092AB021092EC02A0
:101B8000109237031092F1021092F0021092670245
:101B9000109266020895FC01208131812E313105B9
:101BA0002CF42F5F3F4F31832083089511821082E0
:101BB00081E0FB01808308952F923F924F925F92C4
:101BC0006F927F928F929F92AF92BF92CF92DF924D
:101BD000EF92FF920F931F93CF93DF9300D0CDB777
:101BE000DEB7FC013B012A013A832983DB018D9199
:101BF0009C911197E817F90714F4ED93FC93D20127
:101C00008D919C9111978E179F0714F4ED93FC937F
:101C1000D2012D903C90D3012D913C91C101821BAA
:101C2000930B8A3091050CF451C063E070E00E9480
:101C3000C032620F731FE617F707ACF4F80180811A
:101C4000882369F0D401ED91FC91EE0FFF1FEC0D9C
:101C5000FD1D31822082698D7A8DC40118C081E01A
:101C6000E981FA8132C06E177F0784F5A981BA81B4
:101C70008C91882341F1D501ED91FC91EE0FFF1F6E
:101C8000EE0DFF1D318320836F89788DC5010E9481
:101C9000CB0DF30120813181D2018D919C91821B6A
:101CA000930B97FD019695958795820F931FF301EE
:101CB00091838083D2018D939C93E981FA81108274
:101CC000D8011C9203C081E0F8018083A98DBA8DF0
:101CD0008C91882381F0F6019601225C3F4F80E0D1
:101CE00090E041915191840F951F2E173F07C9F73E
:101CF0006FE170E015C0F4016081718161157105BB
:101D000099F0F60120E030E080E090E026173707F8
:101D10003CF441915191840F951F2F5F3F4FF6CFB7
:101D20000E94C0329B0103C0D2012D913C91EF89EA
:101D3000F88D8081882381F0F701A701425C5F4F15
:101D400080E090E061917191860F971F4E175F07B9
:101D5000C9F76FE170E015C0D5016D917C916115F7
:101D6000710599F0F70140E050E080E090E04617FF
:101D700057073CF4A191B1918A0F9B1F4F5F5F4FB2
:101D8000F6CF0E94C032FB0103C0D301ED91FC915C
:101D9000C9018E1B9F0B63E070E00E94C032CB0133
:101DA0008E0F9F1F0F900F90DF91CF911F910F917A
:101DB000FF90EF90DF90CF90BF90AF909F908F906B
:101DC0007F906F905F904F903F902F9008958F92EB
:101DD0009F92AF92BF92CF92DF92EF92FF920F93BA
:101DE0001F9326EA32E03F932F9324E632E03F939D
:101DF0002F9325E3822E23E0922E38E3A32E33E0A7
:101E0000B32E4DEAC42E42E0D42E54EFE52E52E01C
:101E1000F52E02E313E02AEA32E04DEE52E068EAE2
:101E200072E00E94DC0D9093F1028093F0020F901B
:101E30000F900F900F901F910F91FF90EF90DF90F8
:101E4000CF90BF90AF909F908F9008958F929F9268
:101E5000AF92BF92CF92DF92EF92FF920F931F93B8
:101E600027E333E03F932F932CEE32E03F932F9301
:101E70002BEA822E22E0922E32EFA32E32E0B32EF6
:101E800048E6C42E42E0D42E55E2E52E52E0F52E6F
:101E900005E612E02FEE32E043E252E063E373E046
:101EA0000E94DC0D90936702809366020F900F9062
:101EB0000F900F901F910F91FF90EF90DF90CF90B8
:101EC000BF90AF909F908F9008950F931F93CF93E3
:101ED000DF938C01EB0180916402882321F08091D3
:101EE000A602811103C0C8010E94E70E8091EC0296
:101EF000882321F080913703811103C0CE010E9415
:101F0000260F4091F0025091F1028091660290916B
:101F100067022091EB02211121C0041715077CF400
:101F2000C817D9070CF469C083E08093EB02809155
:101F3000A702882309F461C01092A70238C0C8170D
:101F4000D9070CF05AC081E08093EB0280916302C4
:101F5000882309F452C01092630238C02130B1F4D2
:101F6000041715073CF0C817D9070CF446C01092A7
:101F7000EB0207C0C817D9070CF03FC082E080937E
:101F8000EB022093A7021092630237C0223009F5BA
:101F9000041715077CF0C817D9077CF581E08093FA
:101FA000EB0280916302882341F11092630281E089
:101FB00090E025C0C817D90704F183E08093EB02B5
:101FC0008091A7028823C9F01092A7028FEF9FEF9C
:101FD00016C00417150734F0C817D90774F010920B
:101FE000EB0206C0C817D90744F482E08093EB02E5
:101FF00081E0809363021092A70280E090E0DF917D
:10200000CF911F910F910895FC016483438308953C
:10201000EF92FF920F931F93CF93DF93EC01809188
:10202000A4019091A5010E94E4298436910508F449
:102030004CC08091A6019091A7010E94E4290597C8
:1020400008F443C08091AA0181113FC00E94CC29AD
:102050009093A7018093A60180E00E94C61C8C018A
:1020600084E00E94C61C7C018091A3018823A1F01A
:102070008091140280FF10C0FF92EF921F930F9384
:102080008DEA91E19F938F930E94840B0F900F90A4
:102090000F900F900F900F90B701C8010E94650F2D
:1020A000882399F04B81042E000C550B480F511DCD
:1020B0006C81062E000C770BCE01DF91CF911F9122
:1020C0000F91FF90EF900C940410DF91CF911F912E
:1020D0000F91FF90EF900895FC0161834283089572
:1020E000AF92BF92CF92DF92EF92FF920F931F9326
:1020F000CF93DF93CDB7DEB729970FB6F894DEBF45
:102100000FBECDBF6C01CE0101960E94F30C8B81F6
:10211000882309F4A8C08A81882309F4A4C0EC802C
:10212000FD80AF80B8848091A8019091A901892B8E
:10213000A1F48091140283FF0AC080FF08C08BE9DC
:1021400091E19F938F930E94840B0F900F900E94B8
:10215000CC299093A9018093A8018091140283FF58
:1021600024C080FF22C08091A9018F938091A80193
:102170008F939701F7FE03C0319521953109C50171
:10218000B7FE03C0919581959109820F931F9F938C
:102190008F9388E891E19F938F930E94840B0F9017
:1021A0000F900F900F900F900F908091140283FF6B
:1021B00012C080FF10C0BF92AF92FF92EF9284E7EF
:1021C00091E19F938F930E94840B0F900F900F903B
:1021D0000F900F900F9087010038110514F00FE752
:1021E00010E001388FEF180714F401E81FEF7501B4
:1021F00080E8A816B1041CF09FE7E92EF12C81E8D5
:10220000E8168FEFF80624F481E8E82EFF24FA940C
:102210008091140283FF12C080FF10C0FF92EF92E2
:102220001F930F9380E691E19F938F930E94840BFD
:102230000F900F900F900F900F900F90A701B80183
:10224000C60129960FB6F894DEBF0FBECDBFDF9151
:10225000CF911F910F91FF90EF90DF90CF90BF90A3
:10226000AF900C946C1029960FB6F894DEBF0FBE99
:10227000CDBFDF91CF911F910F91FF90EF90DF9035
:10228000CF90BF90AF900895DF92EF92FF920F939F
:102290001F93CF93DF9300D000D01F92CDB7DEB74E
:1022A0008C017B01FB0182811F928F9381811F92A0
:1022B0008F9380811F928F931F930F9385E391E1FA
:1022C0009F938F930E94840B0FB6F894DEBF0FBECE
:1022D000CDBFF7018081813069F4818181110AC00D
:1022E0000E94CC299093A5018093A401F7018281DB
:1022F0008093AA01B701C8010E94EB12D82E88234F
:1023000009F46AC00832FDE51F0719F5F70182815B
:102310008823F9F080913A0390E0019663E070E041
:102320000E94AC3280933A0360913A0370913B0370
:1023300080913C0390913D030E949728E0913A03DD
:10234000F0E0EE0FFF1FE050FF4F808191810E946F
:10235000230CC801845F91090597F0F50E948B1743
:102360003A834B835C836D83F7018281422F8823FC
:10237000B1F0043F110511F4416026C0053F11057D
:1023800011F4426021C0063F110511F444601CC0E5
:10239000073F110511F4486017C0406115C0043FA4
:1023A000110511F44E7F10C0053F110511F44D7F4A
:1023B0000BC0063F110511F44B7F06C0073F110506
:1023C00011F4477F01C04F7E5A816B817C818D81E2
:1023D0000E94AB170E9480178D2D0F900F900F90C9
:1023E0000F900F90DF91CF911F910F91FF90EF9081
:1023F000DF9008950F931F93CF93DF93CDB7DEB790
:102400002A970FB6F894DEBF0FBECDBF809888988C
:1024100084988C988AE0E5E1F1E0DE011196019064
:102420000D928A95E1F7FE0131969E01255F3F4F9F
:1024300041E050E08191A82FA295AF70B0E0919655
:102440006C9191978F708A0102C0000F111F8A95BD
:10245000E2F7C801962F982B91969C9391979296AC
:102460009C9192978095892392968C932E173F0783
:1024700009F72A960FB6F894DEBF0FBECDBFDF91E5
:10248000CF911F910F910C945B1E0E949E0C0C9497
:102490008A0DEF92FF920F931F93CF93DF93CDB7E7
:1024A000DEB72A970FB6F894DEBF0FBECDBF8D837F
:1024B000411116C0E11014C0511112C0F11010C02A
:1024C00061110EC001110CC08D81811109C0211153
:1024D00007C0711105C081E0111103C080E001C087
:1024E00081E081702A960FB6F894DEBF0FBECDBF93
:1024F000DF91CF911F910F91FF90EF900895EF9290
:10250000FF920F931F93CF93DF93CDB7DEB72A9738
:102510000FB6F894DEBF0FBECDBF0E948B172E837F
:102520003F83488759876A87CE0106960E94081024
:10253000CE0106960E9470104E815F816885798574
:102540008A850E94AB170E948B1779018A01262F7A
:102550004E815F81688579858A850E944912811143
:102560000E9480172A960FB6F894DEBF0FBECDBF2B
:10257000DF91CF911F910F91FF90EF90089581E02F
:1025800080933A0360913A0370913B0380913C033E
:1025900090913D030C9497280E94932860933A03EE
:1025A00070933B0380933C0390933D03643010F0A1
:1025B0000E94BF120C94DB16E0913A03F0E0EE0F9C
:1025C000FF1FE050FF4F808191810E94230C0C94EB
:1025D0005A1E81E0089581E0089508950C94ED124B
:1025E0001F93CF93DF9300D000D01F92CDB7DEB7FB
:1025F00049835A836B833091C10189819A8131115A
:1026000014C0662359F0222349F00E942027182F76
:10261000682F89819A810E94C72603C00E94F326F1
:10262000182F69817A81812F04C00E942027698137
:102630007A810F900F900F900F900F90DF91CF91B4
:102640001F910C94BE19FC01262F4081518162819B
:10265000738184810C94F012CF93DF93EC0160E0DE
:102660000E942313BE01DF91CF910C94EE12FF92D2
:102670000F931F93CF93DF93E82FF0E0EC5CFD4EB8
:10268000F490C82FC695C695C695D0E0FE01EC53D0
:10269000FD4E0491877010E0082E02C01595079535
:1026A0000A94E2F701701127FE01EC54FD4EC4912B
:1026B000D0E002C0D595C7958A95E2F7C170DD27B5
:1026C0000115110519F081EE0E94481F209719F09D
:1026D00086EE0E94481F8F2D0E94C21FCD2B19F03D
:1026E00086EE0E94961F012B41F081EEDF91CF9183
:1026F0001F910F91FF900C94961FDF91CF911F9126
:102700000F91FF900895EF92FF920F931F93CF9335
:10271000DF93EC01162F0AE08881882309F455C065
:10272000813009F043C08981813041F47E0182E02B
:10273000E80EF11C8A810E94C21F09C0823049F450
:102740007E01E2E0EE0EF11C8A810E94481FE70143
:102750002FC0833041F47E01F2E0EF0EF11C8A813C
:102760000E94961FF4CF843011F0219621C02A8157
:10277000229680E090E030E0205331092A30310584
:1027800058F4089FA001099F500D1124C901840F1E
:10279000951F21962881EFCF009751F0EFECF7E0DD
:1027A0003197F1F700C000000197F6CF0E94371370
:1027B0002196812F882309F4AFCFEFECF7E0319712
:1027C000F1F700C000008150F5CFDF91CF911F914C
:1027D0000F91FF90EF90089560E00C9483138F9217
:1027E0009F92AF92BF92CF92DF92EF92FF920F93A0
:1027F0001F936B017C0181E090E0A0E0B0E04C0110
:102800005D0104C0880C991CAA1CBB1C4A95D2F718
:10281000AC01BD0104C0440F551F661F771F2A95E8
:10282000D2F7482959296A297B2904C0880F991FA2
:10283000AA1FBB1F0A95D2F78A019B010C211D21FB
:102840002E213F21401751076207730739F4BC015D
:10285000CD016C297D298E299F290AC080959095EC
:10286000A095B095BC01CD016C217D218E219F21C9
:102870001F910F91FF90EF90DF90CF90BF90AF909E
:102880009F908F9008950F93382F262F6091FF010E
:10289000709100028091010290910202042F432F57
:1028A0000E94EF130F910C9403260E943F2A0E946E
:1028B0006228811102C00E94F4280C94CC120C945E
:1028C000D91608950C94611481E008950C94641451
:1028D000CF93C82F0E9462148C2F0E946614CF9150
:1028E000089508950E944D220E9471142FE78AE1F5
:1028F00096E0215080409040E1F700C000000C9429
:10290000192A0F931F93CF93DF93EC0161E00E948C
:1029100023138C01BE010E942518882309F449C0A5
:10292000BE01C8010E944411882309F442C0BE01BF
:10293000C8010E94181B8823E1F1BE01C8010E9452
:102940006A1B8823B1F1BE01C8010E94951C88232F
:1029500081F18A81882331F101308CE5180751F02B
:102960000E3D8CE51807D9F001151C45D9F40E94DD
:1029700072141FC080911402C82FC095C170C0FB93
:1029800080F980931402CC2329F083E292E10E9423
:10299000EB0A0FC081E192E10E94EB0A0BC00E949A
:1029A000F42807C0CE01DF91CF911F910F910C94B5
:1029B000E912C0E08C2FDF91CF911F910F91089504
:1029C000CF93DF930E94BE190E94D115EC018115AF
:1029D0009245F0F5C11581E5D80708F0A9C0C83EB9
:1029E000D10528F5C03ED10508F0D7C0C83AD105B9
:1029F00078F4C53AD10508F074C0C130D10509F4A6
:102A0000CCC008F4C8C0C430D10508F0C6C0C3C0EB
:102A1000CF3BD10508F0BFC0C85AD0E0CC0FDD1FB6
:102A2000C15EDE4F0990D881C02DD464B6C0C115F7
:102A300090E5D90708F060C0C11520E4D20708F07E
:102A400058C0CE019A9581159F4108F4A6C0A3C035
:102A5000C11586E5D80718F5C11595E5D90708F021
:102A600080C0C11524E5D20708F076C09E0123700E
:102A700033278C2F86958695C115D34508F05DC008
:102A8000C1E0D0E002C0CC0FDD1F2A95E2F720E2C2
:102A9000829FC0011124C82BD92BDC687EC0C115D0
:102AA0002AE5D20778F4C11589E5D80708F063C094
:102AB000C11598E5D90708F46EC0DC2FCC27C06F8C
:102AC000D06A6BC0CE0190568115904208F063C069
:102AD0008D2F8F710E946516DD27D0628F71D82BE4
:102AE0005CC0C55AD0E0C35BDE4FC881D0E0D06483
:102AF00054C0DF70D06A51C0CE0174E096958795BE
:102B00007A95E1F783709C2F937021E030E002C04A
:102B1000220F331F9A95E2F73C68382BCF70C69589
:102B2000C69580E2C89FE0011124C22BD32B35C08B
:102B3000DC2FCC27C16FD06A30C0C1E0D0E002C02A
:102B4000CC0FDD1F2A95E2F720E2829FC0011124FD
:102B5000C82BD92BDA6821C0DC2FCC27C46FD06AF0
:102B60001CC08C2F0E9465168F71C82FD0E0DC2FFF
:102B7000CC27D06212C08C2F8F700E94651694E013
:102B8000D695C7959A95E1F7CF70D0E0DC2FCC278A
:102B9000D069C82B02C0C0E0D0E0CE01DF91CF9158
:102BA00008958238910569F1B0F48133910509F4F3
:102BB0006DC048F48932910509F463C08A329105E9
:102BC00009F469C008958533910509F455C0893326
:102BD0009105B9F00895833E910569F138F4803E7E
:102BE0009105B1F0823E910509F10895863E910567
:102BF000A9F1873E9105B9F1843E910509F064C0C1
:102C000023C02091440320FD4FC021FD4DC00895F5
:102C10008091440380FD44C08091450380FF44C0FF
:102C20008091440384FD42C083EE4DC080914403F3
:102C300082FF38C0F5CF8091440382FD33C080917C
:102C4000450380FD31C0ECCF8091450381FF32C048
:102C50008091440384FD2AC087EE35C080914403EF
:102C600083FF26C0F5CF8091440383FD21C080916E
:102C7000450381FD1FC0ECCF8091440385FD1CC03E
:102C80001DC08091440385FD19C016C08091440386
:102C900086FD16C017C08091440386FD13C010C086
:102CA00089E311C082EE0FC080EE0DC080E00BC042
:102CB00086EE09C084EE07C089E205C085E303C043
:102CC0008AE201C081E390E008959091440392FF6D
:102CD0000DC0282F2871283019F4877F846006C022
:102CE000282F2471243011F48B7F886093FF0DC04E
:102CF000282F2871283119F4877E846106C0282F77
:102D00002471243111F48B7E88612091450320FFCA
:102D10000DC0382F3871383019F4877F816006C0B4
:102D2000382F3171313011F48E7F886021FF0DC052
:102D3000282F2871283119F4877E816106C0282F39
:102D40002171213111F48E7E886194FD877E089572
:102D5000E82FF0E0E15CFC4F8081089583EE92E182
:102D60000E94EB0A1F921F928EED92E19F938F9328
:102D70000E94840B8BED92E10E94EB0A80913F034D
:102D80000E944A281F928F9386ED92E19F938F9322
:102D90000E94840B8DB79EB708960FB6F8949EBF1D
:102DA0000FBE8DBF84ED92E10C94EB0A08950C9454
:102DB000D6160C94D7160C94D616CF93DF93A0E5B5
:102DC000B1E065E571E041E050E08D918F3F71F435
:102DD0006A177B07D1F710923E0310923F0381E000
:102DE0000E944917DF91CF910C945514E82FE2957A
:102DF000EF70F0E021A18F70EA0102C0CC0FDD1F5F
:102E00008A95E2F7CE019C2F9095922391A392A1EF
:102E1000892B82A3DDCFCF93A0E5B1E040E050E065
:102E200030E061E070E02D912F3FC1F0E22FE2959C
:102E3000EF70F0E080A190E02F7002C0959587952B
:102E40002A95E2F780FD07C0CB01042E01C0880F50
:102E50000A94EAF702C080E090E0382B4F5F5F4FA2
:102E60004530510501F780913E03831721F03093DF
:102E70003E03C1E001C0C0E02C2F41E06FE373E0EE
:102E80008EE393E00E944A170E945F148C2FCF912B
:102E900008950895FF920F931F93CF93DF938C01B2
:102EA000F62ED72FC42F222349F081E08093AD0165
:102EB0000E94CC299093AC018093AB018091AD012D
:102EC0008823C1F08091AB019091AC010E94E4296C
:102ED000069780F0EF2DFD2FD8014C2F50E0CD014B
:102EE000801B910B841795071CF48D918193F7CF6C
:102EF0001092AD01DF91CF911F910F91FF90089536
:102F00008EEA91E00E941C1EEEEAF1E0118212822C
:102F1000138214820895CF93DF9300D000D01F92C4
:102F2000CDB7DEB785E0EEEAF1E0DE011196019063
:102F30000D928A95E1F729813A814B815C816D81FF
:102F400070E080E090E00F900F900F900F900F9046
:102F5000DF91CF910895CF93DF9300D000D01F92DF
:102F6000CDB7DEB749835A836B837C838D8385E03D
:102F7000FE013196AEEAB1E001900D928A95E1F73B
:102F80000F900F900F900F900F90DF91CF910895B9
:102F900082E290E00E94E132803281F483E290E0AC
:102FA0000E94E132813151F484E290E00E94E132EA
:102FB00091E0823109F090E0892F01C080E08170BA
:102FC0000895CF93C82F811102C06FEF01C060E256
:102FD00082E290E00E94F532C11102C06FEF01C0A1
:102FE00061E183E290E00E94F532C11102C06FEF0F
:102FF00001C062E184E290E0CF910C94F53280E070
:103000000E94E1170C945C28089585E290E00E94EC
:10301000E132682F70E080E090E0089585E290E072
:103020000C94F5320E9404180E94C81781110CC03C
:1030300060E070E0CB010E940E180E9452190E94BD
:10304000181A81E00C94E1170895CF93FB01C28117
:10305000CC23E9F09C0122513F452031310520F479
:1030600082510E94281A0CC08031FFE59F0751F45D
:1030700081E00E94292643E062E081E00E9443143F
:10308000C0E018C081319F45A9F482E0F2CF8031C1
:10309000EFE59E0711F481E004C081319F4549F4BA
:1030A00082E00E944A2643E062E081E00E944314ED
:1030B00001C0C1E08C2FCF9108952FEFFC01208338
:1030C00008951F93CF93DF93EC01162FE8818E2F85
:1030D00090E0FC013197E331F10508F094C0EA5A21
:1030E000FF4F0C94D432198289E099C089818230D3
:1030F00041F0833009F490C08130B1F40E94D829A6
:1031000002C00E9405189A838B837C836D837DC0E7
:103110008981823049F46A817B818C819D810E9402
:10312000DA320E940E1871C0612FCE010E945D1824
:103130006CC04B816A8189810E9424199C838D8394
:1031400064C02C813D813227232732274B816A813D
:1031500089810E943D1959C00E94521956C00E948F
:10316000CB1923C00E94CD19998359C06B8170E09F
:1031700089819A81AE014C5F5F4F982789279827F4
:103180000E94D01942C06B8170E089819A81AE01A2
:103190004C5F5F4F9827892798270E94F51935C003
:1031A0000E94181A32C00E94111989832EC06B81A7
:1031B00070E089819A81AE014C5F5F4F9827892723
:1031C00098270E947A1921C06B8170E089819A81C9
:1031D000AE014C5F5F4F9827892798270E949D1961
:1031E00014C00E94FF1711C0CE010E94612B2FEF67
:1031F00080E792E0215080409040E1F700C000005D
:103200000E94192A02C08FEF8883612FCE01DF91BF
:10321000CF911F910C94612B80E00E94A8168A83A5
:10322000F4CF88E0089550E0440F551F2AE0629FD4
:10323000400D511D11249A016AE0869F200D311D19
:103240001124C901869608950F931F93CF93DF939E
:103250000E9413198C010E94E132C82FD0E0DC2FAC
:10326000CC27C80101960E94E1329E01282BC9019A
:10327000DF91CF911F910F9108950F931F93CF93DB
:10328000DF93122F032F0E941319EC01602F0E946D
:10329000F532612FCE010196DF91CF911F910F91F1
:1032A0000C94F532FF920F931F93CF93DF93F12C81
:1032B00000E010E0C0E0D0E0FE01E00FF11FEE0FF3
:1032C000FF1FEF53FE4E259134914C2F60E08F2D60
:1032D0000E943D192196C530D10571F70B5F1F4F34
:1032E000F39488E0F812E6CFDF91CF911F910F9110
:1032F000FF900895EF92FF920F931F93CF93DF9368
:10330000EA017A01E60EF71E8C01C8018696CE15F9
:10331000DF0561F00035110520F40E94E132888359
:1033200001C0188221960F5F1F4FEFCFDF91CF9121
:103330001F910F91FF90EF900895EF92FF920F93DE
:103340001F93CF93DF93EA017A01E60EF71E8C01FB
:10335000C8018696CE15DF0551F00035110518F429
:1033600068810E94F53221960F5F1F4FF1CFDF91E8
:10337000CF911F910F91FF90EF900895462F8830C5
:1033800038F4711105C0653018F460E00C9424190C
:1033900080E090E0089580E108958AE893E0089540
:1033A000EF92FF920F931F93CF93DF93EA017A017D
:1033B000E60EF71E8C01C8018A589F4FCE15DF0517
:1033C00069F00A3823E0120720F40E94E132888372
:1033D00001C0188221960F5F1F4FEDCFDF91CF9173
:1033E0001F910F91FF90EF900895EF92FF920F932E
:1033F0001F93CF93DF93EA017A01E60EF71E8C014B
:10340000C8018A589F4FCE15DF0559F00A3823E0CE
:10341000120718F468810E94F53221960F5F1F4F42
:10342000EFCFDF91CF911F910F91FF90EF90089513
:10343000CF93DF93C6E7D0E060E0CE010E94F53283
:103440002196C11584E0D807B9F7DF91CF9108958F
:10345000DF92EF92FF920F931F93CF93DF9300D0F1
:1034600000D0CDB7DEB7F82E8FE08F15E8F18FEFE3
:1034700093E00E94E132811137C006E710E0FF209F
:1034800069F0011584E0180779F1C8010E94E13262
:10349000811101C0FA940F5F1F4FF1CF19821A8278
:1034A0001B821C82DD24D39478018FEFE81AF80A7E
:1034B000C8010E94E13289831A828823A9F09FEF14
:1034C000980F933058F48A83D9820E5F1F4FC7013B
:1034D0000E94E1328B83882339F07801CE01019676
:1034E0000E94EC138701E0CF0F900F900F900F9088
:1034F000DF91CF911F910F91FF90EF90DF90089592
:10350000AF92BF92CF92DF92EF92FF920F931F93F1
:10351000CF93DF937C015B01C42FD22FFC0182810A
:103520008823F9F04093B5010E94CC299093B4010F
:103530008093B30180E28C0F883008F06EC0C770B2
:1035400081E001C0880FCA95EAF7DF91CF911F9102
:103550000F91FF90EF90DF90CF90BF90AF900C94C1
:10356000D51F8091B501481335C08091B30190916A
:10357000B4010E94E4296C01B701C5010E9406252F
:10358000C816D90638F510E21D0FCD17B9F080E244
:103590008C0F883040F4C77081E001C0880FCA9555
:1035A000EAF70E94DC1F183058F581E09D2F9770D4
:1035B00001C0880F9A95EAF70E94D51F802F0E94BC
:1035C000C21F183050F5D77081E001C0880FDA951E
:1035D000EAF70AC080E28C0F8830F8F4C77081E007
:1035E00001C0880FCA95EAF7DF91CF911F910F9123
:1035F000FF90EF90DF90CF90BF90AF900C94DC1FC6
:10360000802FDF91CF911F910F91FF90EF90DF906E
:10361000CF90BF90AF900C94C21FDF91CF911F91BC
:103620000F91FF90EF90DF90CF90BF90AF900895F3
:103630000F939C01CB01233F4CE5340731F188F413
:10364000283DFCE53F07D9F0293D4CE5340779F1E9
:10365000273D3C45A9F506E221EE41EE67ED7CE50C
:103660002BC0253FFCE53F07E1F0A8F0263F3C4595
:1036700039F507E225EE46EE66EF7CE51DC007E270
:1036800025EE45EE68ED7CE517C006E221EE40EE42
:1036900063EF7CE511C007E225EE44EE64EF7CE5C4
:1036A0000BC006E221EE42EE65EF7CE505C008E2C4
:1036B00021E045EE69ED7CE50E94801A80E008C0BB
:1036C000FC018281882319F01092B50101C081E0CC
:1036D0000F910895CF93DF93EC01FB018281882342
:1036E00009F41FC1C230FCE5DF0708F41BC1C63175
:1036F0009CE5D90738F09E012A5F3C452930310509
:1037000008F010C10E9475289093450380934403EC
:10371000C031ECE5DE0709F4C3C008F041C0C83091
:103720008CE5D80709F49AC0F0F4C430ECE5DE0764
:1037300009F487C068F4C2308CE5D80709F477C073
:10374000C330DC4509F0E3C080914403826076C059
:10375000C630ECE5DE0709F46EC008F07BC080914E
:10376000440388606BC0CC308CE5D80709F485C071
:1037700068F4CA30ECE5DE0709F474C008F079C0DB
:103780000E944D2280914403806858C0CE308CE561
:10379000D80709F476C008F07FC0809144038BC03D
:1037A000CB3FECE5DE0709F44FC018F5C3318CE5DB
:1037B000D80709F47DC078F4C131ECE5DE0709F4DF
:1037C00073C0C231DC4509F0A2C00E944D22809135
:1037D00044038F7733C0C5318CE5D80709F472C034
:1037E00008F486C0CA3FDC4509F091C080914503CA
:1037F0003EC0CF3FFCE5DF0709F45FC058F4CD3F82
:103800009CE5D90709F444C008F43FC08091450302
:1038100082602DC0C130FDE5DF0709F475C008F4F2
:103820005DC0C230DD4509F072C080E06EC080919D
:103830004403816003C0809144038061809344030A
:1038400066C08091440311C08091450382608093DB
:1038500045035DC0809144038062F0CF80914403B2
:103860008064ECCF8091440388608460E7CF8160FE
:10387000EECF809144038E7FE1CF809144038D7F12
:10388000DDCF80914403877FD9CF8091450318C055
:10389000809145038D7FDBCF809144038F7ECECF17
:1038A000809144038F7DCACF809144038F7BC6CF24
:1038B00080914403877F8B7FC1CF809145038D7FAB
:1038C0008E7FC5CF8091440382FB222720F991E0AF
:1038D000922790FB82F990FB83F9B0CF809145034A
:1038E000982F909591708E7F892B90FB81F9AFCFA7
:1038F0000E944D228091440387FB222720F991E00A
:10390000922790FB87F99ACF81E00E94F628809158
:103910004403909145030E9486280E944D2280E036
:1039200001C081E0DF91CF910895CF93DF9386317D
:103930009C4541F5EB010E94A127982F8A81209197
:10394000080130910901882379F09A7A81E009F41D
:1039500080E08093B601911102C069E201C065E385
:10396000C9010E943D290AC08091B601811102C09F
:1039700069E201C065E3C9010E943F290E94E22774
:1039800080E001C081E0DF91CF91089595E89093A8
:103990007A00982F9072906890937B008F7190912D
:1039A0000601892B80937C0080917A00806480934B
:1039B0007A0080917A0086FDFCCF8091780020917A
:1039C000790090917A009F7790937A0090E0922B03
:1039D0000895289A219A229A23982B9880E58CBDE5
:1039E0000895909107019F3F09F072C08F3F09F43D
:1039F0006FC0611103C01092B80103C090E29093B0
:103A0000B801423041F0433051F0413069F49091B7
:103A1000B801946007C09091B801986003C090917C
:103A2000B8019C609093B80141E050E04217530701
:103A300018F4440F551FFACF9091B8014031510549
:103A4000F1F050F442305105B1F048305105E1F445
:103A500021E02093B70113C04034510591F0403864
:103A6000510539F04032510579F421E02093B70136
:103A700008C0936007C091E09093B70105C09160C2
:103A800001C092609093B8012CB59091B801922B2F
:103A90009CBD9091B701992319F09DB591609DBD92
:103AA00080930701E82FE295EF70F0E031A1282F15
:103AB0002F7081E090E001C0880F2A95EAF7932FDC
:103AC000982B91A392A18095892382A381E00895E8
:103AD00080E00895CF93DF938EBD0E94CC29EC0146
:103AE0000DB407FC0AC00E94CC298C1B9D0B8436A8
:103AF0009105B0F38EEF9FEF02C08EB590E0DF919D
:103B0000CF910895CF93DF931EBC0E94CC29EC0186
:103B10000DB407FC0AC00E94CC298C1B9D0B843677
:103B20009105B0F38EEF9FEF02C08EB590E0DF916C
:103B3000CF910895809107018F3F19F1E82FE29509
:103B4000EF70F0E031A1282F2F7081E090E001C0EC
:103B5000880F2A95EAF7932F982B91A392A1892B8E
:103B600082A38FEF809307018DB58E7F8DBD9CB5AD
:103B70008091B801809589238CBD1092B801109274
:103B8000B70108959093BE018093BD010895E0911F
:103B9000BD01F091BE01309721F00190F081E02D40
:103BA000099480E00895EF92FF920F931F93CF93B3
:103BB000DF93E091BD01F091BE013097B1F18C012E
:103BC0000280F381E02D09958091140282FF2DC0BF
:103BD00080FF04C08AEF92E10E94EB0AE80118E03E
:103BE00084EFE82E82E1F82E8091140280FF0BC052
:103BF00088811F928F93FF92EF920E94840B0F9007
:103C00000F900F900F90115021961111EDCF8091D0
:103C1000140280FF0AC082EF92E1DF91CF911F91E1
:103C20000F91FF90EF900C94EB0ADF91CF911F91D1
:103C30000F91FF90EF900895E091BD01F091BE01CA
:103C4000309721F00480F581E02D099408952091AA
:103C5000BB013091BC012817390771F09093BC016A
:103C60008093BB01E091BD01F091BE01309721F03E
:103C70000680F781E02D099408952091B9013091D3
:103C8000BA012817390771F09093BA018093B901EE
:103C9000E091BD01F091BE01309721F00084F185E3
:103CA000E02D0994089585B7806885BF85B7806841
:103CB00085BF089508950C945A1E0C945A1E0E94B4
:103CC000531E0E945D1E0C94FA1181E008950C941D
:103CD000651E0E94C3290E94DD160E9412180E94D0
:103CE000532A0E9445120C94DC12CF93C82F809166
:103CF000140282FF1EC080FF04C083E193E10E9492
:103D0000EB0A8091140280FF0CC01F92CF938EE0CB
:103D100093E19F938F930E94840B0F900F900F90CD
:103D20000F908091140280FF04C08CE093E10E9408
:103D3000EB0A8C2FCF910C946814FF920F931F9372
:103D4000CF93DF93CDB7DEB72A970FB6F894DEBFD7
:103D50000FBECDBF0E940B170E94671E882379F10A
:103D600080E00E94A816082FF090C001F82639F1D3
:103D70008091140281FD0E94AE1680E011E09F2D1B
:103D80009123C9F08E831F82012381E009F480E032
:103D900088870E94CC298160782F9A8789874E81F5
:103DA0005F8168858A850E94141F8091C001182751
:103DB0001093C00114C08F5F110F853001F78FEF92
:103DC00089838A831B820E94CC298160782F9D83FE
:103DD0008C8349815A816B818D810E94141F0E94BE
:103DE0007F120E94C71D9091BF01891789F00E9420
:103DF000C71D8093BF012A960FB6F894DEBF0FBE91
:103E0000CDBFDF91CF911F910F91FF900C94751E44
:103E10002A960FB6F894DEBF0FBECDBFDF91CF91CB
:103E20001F910F91FF900895CF93DF93CDB7DEB729
:103E30002B970FB6F894DEBF0FBECDBF4F835887C8
:103E400069877A878B87DE01119686E0FD011192E2
:103E50008A95E9F785E0FE01379601900D928A95E3
:103E6000E1F749815A816B817C818D819E810E941D
:103E700009252B960FB6F894DEBF0FBECDBFDF919C
:103E8000CF910895FC01808191810E94622708955D
:103E9000CF93882309F448C0C82F8CEF8C0F813A48
:103EA000D0F46C2F80910801909109010E9407299C
:103EB000882349F06C2F80910801909109010E949C
:103EC0003F290E94E2276C2F8091080190910901FF
:103ED0000E943D290CC080E28C0F883058F4C770D6
:103EE00081E001C0880FCA95EAF70E94A427CF910C
:103EF0000C94E227EBE5EC0FE33040F4F0E0ED57F3
:103F0000FE4F808190E0CF910C94271EC85AC73194
:103F100058F4EC2FF0E0EE0FFF1FEB5AFE4F8081BC
:103F20009181CF910C943D1ECF910895882349F142
:103F3000682F8CEF860F813A38F4809108019091B8
:103F400009010E943F290CC080E2860F883050F49E
:103F5000677081E001C0880F6A95EAF70E94AA277E
:103F60000C94E2278BE5860F833020F480E090E00C
:103F70000C94271E685A673120F480E090E00C947E
:103F80003D1E0895CF93C82F0E94481FC93349F49E
:103F90002FEF83EF91E0215080409040E1F700C087
:103FA00000008C2FCF910C94961F882321F00E9443
:103FB000A4270C94E2270895882321F00E94AA27C1
:103FC0000C94E2270895CF92DF92EF92FF920F9325
:103FD0001F93CF93DF937C01D62FC72FFC01058160
:103FE00002950F70128111110E94C1270E949A2719
:103FF000882399F0112389F08C2F807F803421F061
:1040000080E28D0F883048F082E00E942C280E94C8
:104010009A2791E0D82ED92601C0D12CCC2EC2945B
:104020008FE0C8228C2D90E08C30910508F0ABC158
:10403000FC01E759FF4F0C94D4328C2F807FCF7056
:10404000882311F0C295C07F112399F0CC2309F485
:1040500086C180E28D0F883010F0D11104C08C2F02
:104060000E94A42703C08C2F0E94B4270E94E2273D
:1040700076C18D2F0E94961FCC2309F484C180E263
:104080008D0F883010F0D11104C08C2F0E94AA2708
:1040900003C08C2F0E94BA270E94E22774C18C2F84
:1040A000807FCF70803211F0C295C07FDD2319F080
:1040B000D130C9F022C0112371F0002341F001304A
:1040C00031F40E94C7278C2B0E94CF275CC10E942D
:1040D000C7278C2B1DC0002319F0013009F453C1F0
:1040E0000E94D82725C0112321F0063008F04BC1CB
:1040F0000EC0053008F047C11BC0112361F000233A
:1041000031F0F701858180FF2AC18F7085838C2F64
:104110000E94D51F38C1002359F0D93309F030C1AE
:10412000FFEF03EF11E0F15000401040E1F726C12E
:104130008C2F0E94DC1F27C18C2F8695869583705B
:1041400019F0813061F01FC1112321F08D2F9C2FB8
:10415000937002C080E090E00E94271E1CC11123D2
:1041600021F08D2F9C2F937002C080E090E00E9480
:104170003D1E11C18C2F837009F047C0111107C17A
:104180002D2F229526952770220F220F6D2F6F70ED
:10419000862F90E0A0E0B0E0022E04C0880F991FA7
:1041A000AA1FBB1F0A94D2F7D4FF10C04FE050E003
:1041B00060E070E004C0440F551F661F771F2A950A
:1041C000D2F7409550956095709503C040E050E05F
:1041D000BA01C695C695C3708A019B01082B192B9D
:1041E0002A2B3B2BC901B801C23049F058F4C13029
:1041F00019F00E94DD25CBC00E94CB25C8C00E94CB
:10420000EF25C5C00E94C925C2C0112319F08C2F0B
:10421000817001C08695882309F4B9C02D2F22959D
:1042200026952770220F220F6D2F6F70862F90E03A
:10423000A0E0B0E0022E04C0880F991FAA1FBB1F88
:104240000A94D2F7D4FF10C04FE050E060E070E075
:1042500004C0440F551F661F771F2A95D2F740955B
:1042600050956095709503C040E050E0BA01C69546
:10427000C695C3708A019B01082B192B2A2B3B2B57
:10428000C901B801C23049F058F4C13019F00E9498
:10429000A2267DC00E9490267AC00E94B42677C0D4
:1042A0000E94032674C0CF70112339F08C2F0E9416
:1042B00029268D2F0E94D51F6AC08D2F0E94DC1FDA
:1042C0008C2F0E944A2663C0D23F01F128F4D03FD0
:1042D00041F0D13FA1F03FC0D33FF9F0D43F39F1D5
:1042E0003AC0112341F0053008F04DC08C2F8F717A
:1042F0000E946F2648C0063008F045C0F7CF112352
:1043000039F08C2F8F710E9429263DC01123C9F3EB
:104310008C2F8F710E944A2636C0112329F08C2FD2
:104320008F710E9414262FC00E940F262CC01123CB
:1043300049F0CF718C2F0E94292663E08C2F0E94B8
:10434000172821C081E00E942C280230E0F082E092
:104350000E942C2818C0112331F0002391F28D2FD8
:104360000E94481F10C0002399F2D93349F41FEF6F
:1043700023EF31E0115020403040E1F700C0000051
:104380008D2F0E94961F88EF8C0D843020F40E94A0
:10439000C71D0E946814DD20C9F00E94962780FD89
:1043A00015C0F70112820E9490270E942926C7019A
:1043B0000E9407220E949027DF91CF911F910F91B9
:1043C000FF90EF90DF90CF900C944A26DF91CF9131
:1043D0001F910F91FF90EF90DF90CF9008950F9372
:1043E0001F93CF93DF93EC01688179818A810E94CA
:1043F0006D278C010E94C6260E94B725B801CE0108
:104400000E94E31FDF91CF911F910F910895CF93E9
:10441000DF93EC01988189812B813C81232B31F042
:104420008F3F31F481E09F3F19F403C081E001C068
:1044300080E080FD19C0CE010E94811481110CC062
:104440000E949A27882381F08A81882369F082E07C
:10445000DF91CF910C942C28CE010E94EF21CE0148
:10446000DF91CF910C942C13DF91CF9108950E948E
:10447000C1270E94C4270E94E22780E090E00E94AA
:10448000271E80E090E00C943D1E809108019091E1
:1044900009010E9441290C9437220E94B1270C94F3
:1044A0004522E92FE295EF704E2F50E0FA01329746
:1044B000EE30F105B0F4EB58FF4F0C94D432803F4E
:1044C00091F018F4883E68F40EC0843F51F40BC09C
:1044D000883E48F0813F29F406C093FB882780F985
:1044E000089580E0089581E008950E9462270E9467
:1044F00051220895CF93DF9300D000D01F92CDB703
:10450000DEB70F900F900F900F900F90DF91CF912B
:104510000895CF93DF9300D000D000D0CDB7DEB7A1
:1045200026960FB6F894DEBF0FBECDBFDF91CF91B8
:1045300008951F93CF93DF93C091C20116E080913D
:10454000C301C81799F0D0E01C9FF0011D9FF00D2A
:104550001124EC53FE4F408151816281738184812B
:1045600095810E9489222196C770E9CFDF91CF9172
:104570001F9108954091F4015091F5016091F60169
:104580007091F7018091F8019091F9010C948922C2
:104590000F931F93CF93DF938091F90182958F70D2
:1045A00009F05DC08091F601882309F458C080911C
:1045B000C2011091C3016091F4017091F501C091A5
:1045C000F701D091F80191E06F3F09F090E0292FB9
:1045D00006E0811709F443C0209721F07F3F21F0C6
:1045E00030E003C031E001C0322F90E030FD34C034
:1045F000089FF001099FF00D1124DF01AC53BE4F5D
:1046000011963C911197371327C03C91361324C063
:1046100012963C91129731111FC013964D915C91E7
:1046200014974C1B5D0B483C5105B0F48091F90187
:104630008F7080618093F901E753FE4F80818F7006
:104640008061808384EF91E00E940722DF91CF9107
:104650001F910F910C94992201968770BACFDF9128
:10466000CF911F910F9108959F92AF92BF92CF92D9
:10467000DF92EF92FF920F931F93CF93DF93CDB70B
:10468000DEB761970FB6F894DEBF0FBECDBF8C01C9
:1046900085E0F801DE011D9601900D928A95E1F703
:1046A000F80140815181E2809091F4016091F5011F
:1046B0002091F7013091F8012115310531F06F3F5C
:1046C00031F481E09F3F19F403C081E001C080E034
:1046D000F82FF1709F2E80FD46C1F801A380B480B1
:1046E00084EFC82E81E0D82EF090F601F501E21B90
:1046F000F30BFF2009F4DFC08091F901E83CF105DC
:1047000008F09BC0282F207F09F052C0561313C019
:10471000491311C0FE2CE1100EC08F708061809390
:10472000F9010E94BA22C6010E9407228091F90174
:10473000F801858358C1AB2831F05F3F31F481E047
:104740004F3F19F403C081E001C080E080FD03C049
:1047500081E08E2502C080E090E0F82FF170FF2EFE
:1047600080FF1CC08091C2012091C30136E08217F6
:1047700009F417C190E0389FF001399FF00D112422
:10478000EC53FE4F6181561306C06081461303C08F
:104790006281E61203C001968770E9CFFE2CEE20FD
:1047A00009F421C18091F90181608093F9015AC017
:1047B000561306C0491304C0E11002C0F8019FC09F
:1047C0004D875E878D859E850E947522882379F1AD
:1047D000EE2069F12091F901822F82958F7090E08F
:1047E000029774F08091F4019091F50198878F837E
:1047F0001986BB86AA862C87CE0107960E940722BF
:1048000086E0F801A4EFB1E001900D928A95E1F7FE
:104810000E94C8220E94BA220DC0561729F14D8766
:104820005E878D859E850E94752281112CC0C801EE
:104830000E940722FF24F394D6C0282F207F69F717
:104840007A2DB98AA88A6E2D89890E947A2284EFEE
:1048500091E00E94072286E0F60111928A95E9F71D
:104860000E94BA22F12CBFC04913D9CFE110D7CF93
:10487000F8018583C8010E94072286E0F6011192A3
:104880008A95E9F7B0C0EE2091F22091F901822FCC
:1048900082958F7090E002970CF4B2CF8091F40172
:1048A0009091F5019A8389831B82BD82AC822E830D
:1048B000CE010196A3CFE83CF10508F047C0FE2CDD
:1048C000EE2009F4B4CF561330C049132EC0209106
:1048D000F90120FD21C0822F82958F70482F50E072
:1048E00041155105C9F0F80125834F30510541F0BC
:1048F0008F5F982F9295907F822F8F70892B858361
:10490000C8010E94072286E0F801A4EFB1E00190FF
:104910000D928A95E1F742C086E0F801A4EFB1E07C
:1049200001900D928A95E1F75EC04D875E878D8577
:104930009E850E947522811163CF8091F90181606B
:104940008093F901C8010E9407224DC07A2DB98ACF
:10495000A88A6E2D89890E947A2286E0F60111923A
:104960008A95E9F71BC0EE2009F461CF4D875E8779
:104970008D859E850E947522F82E882309F457CFD5
:1049800086E0F801A4EFB1E001900D928A95E1F77D
:1049900084EF91E00E94421F0E94C8220E94BA2226
:1049A00022C04D875E878D859E850E946227292FB4
:1049B00022952F70223028F49F7039F0811105C0A4
:1049C0000BC0243028F49F7049F4805E883020F0BA
:1049D000C8010E9407229F2CF92C05C0F80195817F
:1049E000907F99F7F9CF8F2D61960FB6F894DEBFBF
:1049F0000FBECDBFDF91CF911F910F91FF90EF9030
:104A0000DF90CF90BF90AF909F90089588EC90E09A
:104A100008951F93CF93DF93CDB7DEB72C970FB6D2
:104A2000F894DEBF0FBECDBF4F83588769877A8762
:104A30008B879C87CE0107960E9434238823D1F070
:104A40009F8188852A853B85232B31F08F3F31F468
:104A500081E09F3F19F403C081E001C080E080FD48
:104A600047C04F81588569857A858B859C850E94D2
:104A700089223EC086E0FE013796DE011196019044
:104A80000D928A95E1F7FF81E8856A857B8561153E
:104A9000710531F0EF3F31F481E0FF3F19F403C0BD
:104AA00081E001C080E080FD23C02091C30130E09F
:104AB000C9010196877099274091C20150E084177F
:104AC0009507F1F1F983EA837D836C8396E0929FE9
:104AD000D001939FB00D1124AC53BE4FFE0131960F
:104AE00001900D929A95E1F78093C3010E9499225B
:104AF00016E08091C2019091C301891771F1189F4E
:104B0000C00111248C539E4F0E943423882329F125
:104B1000E091C2011E9FF0011124EC53FE4F408131
:104B2000518162817381848195810E948922809163
:104B3000C20190E00196877099278093C201D9CF76
:104B40000E944D221092C3011092C201E4EFF1E0E5
:104B500086E0DF011D928A95E9F72C960FB6F8944E
:104B6000DEBF0FBECDBFDF91CF911F910895089595
:104B700008950C94B8250C94B9250E94BB25609328
:104B800003027093040280930502909306020C9432
:104B900037220C94BD250F931F93009103021091AF
:104BA00004022091050230910602602B712B822BAA
:104BB000932B1F910F910C94BD250F931F93009180
:104BC0000302109104022091050230910602602335
:104BD0007123822393231F910F910C94BD250F9372
:104BE0001F9300910302109104022091050230915D
:104BF000060260277127822793271F910F910C943B
:104C0000BD250C94B8250E9401266093FF01709386
:104C1000000280930102909302020C94372260E01C
:104C200070E0CB010C9403260F931F9341E050E0FA
:104C300060E070E08A019B0104C0000F111F221F79
:104C4000331F8A95D2F7C901B8011F910F910C94B7
:104C500003260F931F9341E050E060E070E004C032
:104C6000440F551F661F771F8A95D2F78091FF0169
:104C700090910002A0910102B09102028A019B0171
:104C8000082B192B2A2B3B2BC901B8011F910F911F
:104C90000C9403260F931F9341E050E060E070E016
:104CA00004C0440F551F661F771F8A95D2F74095A1
:104CB0005095609570958091FF0190910002A091B0
:104CC0000102B09102028A019B01082319232A23C1
:104CD0003B23C901B8011F910F910C9403260F9338
:104CE0001F9341E050E060E070E004C0440F551FA6
:104CF000661F771F8A95D2F78091FF01909100027D
:104D0000A0910102B09102028A019B010827192794
:104D10002A273B27C901B8011F910F910C94032644
:104D20000F931F930091FF01109100022091010247
:104D300030910202602B712B822B932B1F910F91CC
:104D40000C9403260F931F930091FF011091000212
:104D50002091010230910202602371238223932368
:104D60001F910F910C9403260F931F930091FF0145
:104D700010910002209101023091020260277127F8
:104D8000822793271F910F910C940326089524E006
:104D9000929F900D1124890FE82FE695E695E695F0
:104DA000877051E001C0550F8A95EAF785E0E89FCA
:104DB000F0011124E650FE4F20E030E070E0408129
:104DC000CB01022E02C0969587950A94E2F7817076
:104DD000819584278523842781932F5F3F4F25303A
:104DE000310569F7089524E0929F900D1124890FF1
:104DF000682F669566956695982F977085E0689FF1
:104E0000B001112440E050E080E0FB01E40FF51F09
:104E1000E650FE4F208130E0092E02C036952795DE
:104E20000A94E2F721703327042E01C0220F0A945E
:104E3000EAF7822B4F5F5F4F4530510531F70895F8
:104E4000BF92CF92DF92EF92FF920F931F93CF9377
:104E5000DF938C01C090FF01D0900002E09001022E
:104E6000F09002028091030290910402A091050249
:104E7000B0910602C82AD92AEA2AFB2ACFE1D0E05B
:104E8000D701C6010C2E04C0B695A79597958795B6
:104E90000A94D2F780FD04C0219790F7B12C07C087
:104EA000BC2EB8018C2F0E94E0140197A9F38B2D22
:104EB000DF91CF911F910F91FF90EF90DF90CF90F6
:104EC000BF900895CF93DF93EC010E942027BE018D
:104ED0000E94E014DF91CF9108951F93CF93DF9349
:104EE000EB019091C101992321F0CB010E9462272F
:104EF00013C0882349F0CB010E942027182F682F68
:104F0000CE010E94C72604C0CB010E94F326182FB1
:104F1000BE01812F0E94E014DF91CF911F9108956F
:104F20008091070285958595859508958091070262
:104F30008770089590910702977081E009F480E0EE
:104F4000089580911302089590911302892B809304
:104F50001302089580959091130289238093130280
:104F6000089510921302089590911202892B809354
:104F70001202089580959091120289238093120263
:104F800008951092120208951092110208958091CE
:104F90000802089508950C94CA270C94CB27909189
:104FA0000802981721F0809308020C94CD270895E9
:104FB00080910802882329F01092080280E00C9466
:104FC000CD270895E0910801F09109018091130225
:104FD0008083E0910801F091090190818091120293
:104FE000892B8083E0910801F091090190818091E3
:104FF0001102892B808380910802882381F0E0913F
:105000000801F09109019081892B8083809108012A
:10501000909109010E94FB2881110E94D82780915C
:105020000801909109010C94D31D0C94CA2798E0B3
:10503000899F90011124262B209307020E94292684
:10504000809107028595859585950C941528109279
:10505000070280E00C941528209107028095822396
:1050600080930702982F977079F430E0482F082E2C
:10507000000C550B2417350739F0859585958595D6
:105080000E944A260C94272808959093A1018093AA
:10509000A00108958295982F937344E0949F900106
:1050A00011248C7C86958695282B822F8575880FF8
:1050B0002A7A2695822B08956FEF7FEF80E090E0AB
:1050C0000C94133380E090E00E94EF3221E08C3E9C
:1050D0009E4F09F020E0822F089582E090E00C942A
:1050E000E13283E090E00C94E132CF9384E090E0F1
:1050F0000E94E132C82F81E290E00E94E1322C2F21
:1051000030E0A901582BCA01CF910895CF93C92F40
:10511000682F84E090E00E94F5326C2F81E290E0ED
:10512000CF910C94F5328FE090E00C94E932AB0112
:10513000BC018FE090E00C9407336CEE7EEF80E0D2
:1051400090E00E94133360E082E090E00E94F5322C
:1051500060E083E090E00E94F5321092030210922A
:105160000402109205021092060260E084E090E0D2
:105170000E94F53260E081E290E00E94F53260E04A
:1051800085E090E00E94F53260E086E090E00E94C9
:10519000F5326FEF87E090E00E94F53240E050E09A
:1051A000BA0188E090E00E94073360E08DE090E073
:1051B0000E94F53240E050E0BA0188E190E00E94A0
:1051C000073360E087E190E00E94F53240E050E074
:1051D000BA018CE190E00E94073360E080E290E049
:1051E0000E94F5320C94BF120C949D28682F8EE01B
:1051F00090E00C94F532FC01329697E080E09150FB
:1052000029F021912223D9F38F5FF9CF08956623E6
:1052100049F0FC01329608962191621729F0E817AF
:10522000F907D1F780E0089581E008959C01FC0121
:1052300032969FEF80E04191461789F09F3F19F425
:10524000411101C0982F8F5F8630A9F79F3F39F039
:10525000F901E90FF11D97FDFA956283089508950C
:105260009C012A5F3F4FFC014281461301C012821C
:10527000019682179307B9F708950C9416290C9498
:105280003029029626E0FC0111922A95E9F708954B
:1052900008950C9448290C9448290E944B290E9497
:1052A0000B170E94492980E00E94A81691E0811105
:1052B00001C090E0892F08950C9448290C945C2932
:1052C0000E945E2980914A03843049F110921502B0
:1052D00020E488E190E00FB6F894A89580936000F0
:1052E0000FBE2093600080E00E9468140E945E2937
:1052F00083B7817F846083BF83B7816083BF7894E5
:10530000889583B78E7F83BF0FB6F894A895809158
:105310006000886180936000109260000FBE089565
:105320000C9448290E944D220E94C71D0E946814B7
:105330000C9490291F920F920FB60F9211248F9305
:105340009F93AF93BF9380911502811113C08091F9
:10535000400390914103A0914203B09143034196D1
:10536000A11DB11D8093400390934103A09342037C
:10537000B0934303BF91AF919F918F910F900FBE58
:105380000F901F90189582E084BD93E095BD9DE736
:1053900097BD80936E0008952FB7F89480914003D5
:1053A00090914103A0914203B09143032FBF089510
:1053B0002FB7F894609140037091410380914203AC
:1053C000909143032FBF08959C014FB7F8948091AB
:1053D000400390914103A0914203B09143034FBF1A
:1053E000821B930B089578941F920F920FB60F9221
:1053F00011248F939F93AF93BF938091400390911B
:105400004103A0914203B09143030196A11DB11D38
:105410008093400390934103A0934203B0934303CE
:10542000BF91AF919F918F910F900FBE0F901F90E2
:10543000189581E08093E00080E28093D80010927C
:10544000C9008FE097E20197F1F700C0000087E004
:1054500090EBDC018093530390935403A093550386
:10546000B09356039CE088E10FB6F894A89580931A
:1054700060000FBE90936000FFCF0C94FF170E9456
:105480000B178FE19EE40197F1F700C000000E9426
:105490000B1780E00E94A81683FF04C00E943D2ADB
:1054A0000C94192A08950E946228811102C00E945A
:1054B000F4280E946D28809314020E94752890930E
:1054C0004503809344030E947128682F70E080E0B8
:1054D00090E00E94C9256091FF01709100028091C7
:1054E0000102909102020C940126809121020895FC
:1054F0009FB7F894109218029FBF90914A0394307E
:1055000009F057C09091E9009F703091EC00232F73
:10551000217030FD20E8922B26E02093E9002091B5
:10552000EB0020FF43C02091EE0027FF3FC02091F9
:105530001602222321F02091E80025FF37C01092A7
:10554000160226E03091E80035FD15C030914A037F
:10555000343061F53091EB0035FD28C0215021F445
:1055600081E08093160222C0EFECF7E03197F1F76B
:1055700000C00000E7CF8093F1008091E80085FD36
:105580000AC08091E80080FFFCCF8091E8008E7710
:105590008093E80006C08FB7F89421E020931802AA
:1055A0008FBF9F709093E90080E008959F70909363
:1055B000E9008FEF0895CF93DF9300D01F92CDB70E
:1055C000DEB790914A03943019F589837B836A830F
:1055D00085E08093E9008FEF9091E800815095FD80
:1055E00006C09AE69A95F1F700C08111F5CF809137
:1055F000E80085FF0DC040E050E063E070E0CE01C0
:1056000001960E94BB2D8091E8008E778093E80080
:105610000F900F900F90DF91CF910895BC0184E01F
:105620000C94DB2ABC0183E00C94DB2A22E020935B
:10563000E9002FEF3091E800215035FD06C03AE631
:105640003A95F1F700C02111F5CF2091E80025FF30
:105650000BC040E050E065E070E00E94BB2D8091FF
:10566000E8008E778093E8000895CF93DF9321E0E0
:105670002093E9002FEF3091E800215035FD06C05E
:105680003AE63A95F1F700C02111F5CF2091E800F4
:1056900025FF14C0EC0140E050E068E070E00E949B
:1056A000BB2D8091E8008E778093E80088E0FE01B2
:1056B000A9E1B2E001900D928A95E1F7DF91CF91D7
:1056C0000895CF93603219F520914A032430F9F4FC
:1056D000C091E900CF703091EC00232F217030FD94
:1056E00020E8C22B23E02093E9002091E80020FF6E
:1056F0000BC040E050E060E270E00E94BB2D809162
:10570000E8008E778093E800CF70C093E900CF91D6
:1057100008958BE493E10E94EB0A80914903811183
:1057200009C00E94972F0E94F42F8091E2008460AC
:105730008093E200089587E493E10E94EB0A1092BF
:105740004903089583E493E10C94EB0A8FE393E11A
:105750000C94EB0A8BE393E10E94EB0A0C949229E0
:10576000209117022F5F822F62E30E94A0329923BB
:1057700019F02093170208951092170280911802D1
:10578000882371F180914A03843041F58091E900CA
:105790008F702091EC00922F917020FD90E8892B62
:1057A00096E09093E9009091EB0090FF14C09091E7
:1057B000EE0097FF10C09091E80095FF03C0109293
:1057C000F100F9CF9091E80090FF05C09091E800BA
:1057D0009E779093E8008F708093E90010921802F2
:1057E000089542E061EC81E00E94102F42E061ECFC
:1057F00082E00E94102F42E261EC85E00E94102FAF
:1058000042E261EC83E00E94102F42E260EC84E00F
:105810000E94102F42E261EC86E00C94102F8091E0
:105820004C03833009F462C030F4813071F082306F
:1058300009F49BC008958A3009F487C08B3009F4BD
:105840006DC0893009F0A9C020C080914B03813A16
:1058500009F0A3C08091E800877F8093E8008091E1
:105860004F0390915003892B21F468E089E192E085
:1058700003C060E080E090E070E00E94512E8091D3
:10588000E8008B778093E800089580914B03813284
:1058900009F083C080914F0390915003009719F055
:1058A000039709F07AC08091E800877F8093E80031
:1058B0008091E80082FD05C080914A038111F8CFF4
:1058C0006CC02091F3008091F20090E0922B02973F
:1058D00029F48091F1008B7F813021F48091F100D7
:1058E000809321028091E8008B7753C080914B0315
:1058F000813A09F052C080914F0390915003892B57
:1059000009F04BC08091E800877F8093E800809188
:10591000E80080FFFCCF8091140136C080914B03DA
:105920008132D9F580914F0390915003892BA9F5CD
:105930008091E800877F8093E8000E94452F809146
:105940004D03809314010C944D2280914B038132BE
:1059500021F58091E800877F8093E8000E94452F21
:1059600080914E0380932202089580914B03813AE7
:10597000A1F48091E800877F8093E8008091E8009F
:1059800080FFFCCF809122028093F1008091E8009B
:105990008E778093E8000C94452F0895CF93DF9382
:1059A000CDB7DEB7A0970FB6F894DEBF0FBECDBF60
:1059B00084B7877F84BF0FB6F894A8958091600064
:1059C000886180936000109260000FBE90E080E8D4
:1059D0000FB6F89480936100909361000FBE0E940F
:1059E0005F1E0E94972F0E94F42F8091E200846036
:1059F0008093E20088E79AE20E94452878940E940A
:105A000085320E94691E8AE091E00E94C21D8AE2EE
:105A100093E10E94EB0A80914A03853089F486E283
:105A200093E10E94EB0A0E94602980914803882339
:105A300091F30E944D29882371F30E94A62DEBCF8C
:105A40000E949D1E80914A03843029F78093E900CB
:105A50008091E80082FFDFCF8091E80085FF0AC0D7
:105A600040E050E060E270E0CE0101960E94062E18
:105A700091E001C090E08091E8008B778093E8008E
:105A8000992349F260E2CE0101960E946118C3CFCA
:105A90000C944A2D292F332723303105C9F060F4A7
:105AA0002130310581F02230310509F047C084E909
:105AB00090E023E833E146C02132310511F1223272
:105AC000310561F13BC082E190E027E134E13AC069
:105AD00099278130910561F040F08230910559F0AD
